:040200000202EE32D6
:01020B0032C0
:0102130032B8
:01021B0032B0
:0102230032A8
:01022B0032A0
:010233003298
:01023B003290
:010243003288
:01024B003280
:010253003278
:01025B003270
:010263003268
:03026B000207582F
:030273000207C7B8
:03027B000207DD9A
:030283000207F37C
:03028B0002080B5B
:030293000208213D
:03029B000208371F
:0302A30002084D01
:0302AB00020863E3
:0302B300020879C5
:0302BB0002088FA7
:0302C3000208A589
:0102CB003200
:0102D30032F8
:0102DB0032F0
:0102E30032E8
:0302EB000208C244
:02034700C202F0
:10034B0002034E12037680FEAA82AB83757AC275C6
:10035B007B02157A74FFB57A02157BE57A457B70C3
:10036B00F11ABAFF011BEA4B70E222C202C2011260
:10037B000930D2E843D82090E65CE0FA443DF0D255
:10038B00AF90E680E0FA20E12790E680E0FA440A9D
:10039B00F0D2819000C8120353C2819000C812039F
:1003AB005390E65D74FFF090E65F74FFF05391EFAE
:1003BB0090E680E0FA54F7F0538EF8120A5790E665
:1003CB005EE0FA4408F090E65B7401F090E65A7434
:1003DB0001F090E65974FFF090E65874FFF090E648
:1003EB0068E0FA440AF0C20B1210F8D281120DC465
:1003FB0080FB90E6B9E0FABA0602800302051F9073
:10040B00E6BBE0FABA01187A007B1E90E6B3EBF07C
:10041B007A007B1E7B0090E6B4EAF0E424FF229086
:10042B00E6BBE0FABA06187A127B1E90E6B3EBF045
:10043B007A127B1E7B0090E6B4EAF0E424FF229054
:10044B00E6BBE0FABA02187A1C7B1E90E6B3EBF01F
:10045B007A1C7B1E7B0090E6B4EAF0E424FF22902A
:10046B00E6BBE0FABA07187A1C7B1E90E6B3EBF0FA
:10047B007A1C7B1E7B0090E6B4EAF0E424FF22900A
:10048B00E6BBE0FABA0302800302051A90E6BAE073
:10049B0070187A3C7B1E90E6B3EBF07A3C7B1E7BAC
:1004AB000090E6B4EAF0E424FF2290E6BAE0FABA50
:1004BB0001187A407B1E90E6B3EBF07A407B1E7BF3
:1004CB000090E6B4EAF0E424FF2290E6BAE0FABA30
:1004DB0002187A487B1E90E6B3EBF07A487B1E7BC2
:1004EB000090E6B4EAF0E424FF2290E6BAE0FABA10
:1004FB0003187A547B1E90E6B3EBF07A547B1E7B89
:10050B000090E6B4EAF0E424FF22740124FF227485
:10051B000124FF2290E6B9E0FABA0B04E424FF228F
:10052B0090E6B9E0FABA0904E424FF2290E6B9E0B8
:10053B00FABA030280030205D090E6B8E0701A9075
:10054B00E6BAE0FABA0106D200E424FF2290E6BA3A
:10055B00E0FABA0204E424FF2290E6B8E0FABA0209
:10056B005F90E6BCE0FA53027E90E6BCE0FBC374FE
:10057B00809BE433FB4A9011D793FA3395E0FB74DD
:10058B00A12AFA74E63BFB90E6BCE0FC53047E9098
:10059B00E6BCE0FDC374809DE433FD4C9011D79312
:1005AB00FC3395E0FD74A12CFC74E63DFD8C828D33
:1005BB0083E0FC4304018A828B83ECF0E424FF226A
:1005CB00740124FF2290E6B9E0FABA01028003021B
:1005DB00068F90E6B8E0701A90E6BAE0FABA010618
:1005EB00C200E424FF2290E6BAE0FABA0204E42443
:1005FB00FF2290E6B8E0FABA0202800302068A9064
:10060B00E6BCE0FA53027E90E6BCE0FBC374809B31
:10061B00E433FB4A9011D793FA3395E0FB74A12A8C
:10062B00FA74E63BFB90E6BCE0FC53047E90E6BC20
:10063B00E0FDC374809DE433FD4C9011D793FC33E4
:10064B0095E0FD74A12CFC74E63DFD8C828D83E05E
:10065B00FC5304FE8A828B83ECF090E6BCE0548062
:10066B00FAC423541FFA90E6BCE0FB740F5B90E6D0
:10067B00832AF090E683E0FA4420F0E424FF22740E
:10068B000124FF2290E6B9E0FABA0704E424FF2222
:10069B0090E6B9E0FABA0C04E424FF2290E6B9E044
:1006AB00FABA0A0A758200120ABAE424FF2290E60B
:1006BB00B9E0FABA080A758201120ABAE424FF22D9
:1006CB0090E6B9E0600302075390E6B8E0FABA800F
:1006DB0022E4A20033FAE4FBCA25E0CA33FBE4A20E
:1006EB000133FC7D004AF582ED4BF583120ACDE414
:1006FB0024FF2290E6B8E0FABA810A900000120AB1
:10070B00CDE424FF2290E6B8E0FABA822390E6BC4F
:10071B00E090E6BCE09011D7E493FA3395E0FB74DC
:10072B00A12AF58274E63BF583120ACDE424FF225D
:10073B007A007B1E90E6B3EBF07A007B1E7B009079
:0D074B00E6B4EAF0E424FF22740124FF224A
:0A11D70000010202030304040505F1
:10075800C0E0C0F0C082C083C002C003C004C005AE
:10076800C006C007C000C001C0D075D00090E6B96F
:10077800E0FABA0D00500F1203FD501790E6A0E002
:10078800FA4401F0800D120ED2500890E6A0E0FA6B
:100798004401F090E6A0E0FA4450F05391EF90E65F
:1007A8005D7401F0D0D0D001D000D007D006D005BC
:1007B800D004D003D002D083D082D0F0D0E032C0B1
:1007C800E0C082C0835391EF90E65D7402F0D0835D
:1007D800D082D0E032C0E0C082C0835391EF90E66F
:1007E8005D7404F0D083D082D0E032C0E0C082C013
:1007F80083D2025391EF90E65D7408F0D083D082E3
:10080800D0E032C0E0C082C0835391EF90E65D74BF
:1008180010F0D083D082D0E032C0E0C082C08353D1
:1008280091EF90E65D7420F0D083D082D0E032C0A2
:10083800E0C082C0835391EF90E65D7440F0D083AE
:10084800D082D0E032C0E0C082C0835391EF90E6FE
:100858005D7480F0D083D082D0E032C0E0C082C026
:10086800835391EF90E65F7401F0D083D082D0E09B
:1008780032C0E0C082C0835391EF90E65F7402F00B
:10088800D083D082D0E032C0E0C082C0835391EFE1
:1008980090E65F7404F0D083D082D0E032C0E0C02C
:1008A80082C083D20890E68DE4F05391EF90E65F22
:1008B8007408F0D083D082D0E032C0E0C082C08318
:1008C800C00290E658E4F05391EF90E659E0FAD26E
:1008D8000B90E65B7401F090E65A7401F090E659CB
:1008E80074FFF090E65874FFF0D002D083D082D025
:1008F800E03290E6CEE4F000000090E02FE0FA90BD
:10090800E6CFF000000090E02EE0FA90E6D0F0008C
:10091800000090E02DE0FA90E6D1F000000075BBF1
:100928000622E5BB30E7FB2290E600E0FA74E75ABE
:1009380090E6004410F000000090E60B7403F0000D
:10094800000090E61274E0F000000090E613E4F076
:1009580000000090E61474E0F000000090E615E452
:10096800F000000090E61074A0F000000090E6048B
:100978007480F000000090E6047402F0000000901B
:10098800E604E4F000000090E68DE4F090E60174DF
:10099800CAF090E6F574FFF000000090E6F374A04A
:1009A800F090E6C37410F090E6C1E4F090E6C2F06F
:1009B80090E6F4F075AF07759DE4759E007AE17BCB
:1009C800118B9A7AE17B117B008A9B7A208A031A21
:1009D800EB600B90E67BE0FB90E67CF080EF90E626
:1009E800C6E4F090E6C7F090E6C8F090E6C9F0904B
:1009F800E6CAE4F090E6CBF090E6CCF090E6CDF0D5
:100A080090E6207402F000000090E621E4F0000077
:100A18000090E6187408F000000090E61A7402F0DE
:100A280000000090E6C0E4F0000000D20090E671FB
:100A3800E4F075B40090E670E4F075B2F390E672F5
:100A4800E4F075B60075800375B50075B30022C271
:100A580005C209C20AC20BC203C204E4F566F567FF
:100A6800F568F569F56AF56BF56CF56DC20C757886
:070A780000757900C208229D
:1011E1003F010101010101070300000000000000AF
:1011F10001000000000000002D2D00000000003F54
:02034900C207E9
:100A7F00C28090E04174FFF0A3F090E041E0FAA350
:100A8F00E0FBEA24FFFCEB34FFFD90E041ECF0A328
:090A9F00EDF0EA4B70E4D2802274
:1000000002037602DEAD000000000002110E0000C7
:1000100000000002DEAD000000000002DEAD0000C6
:1000200000000002DEAD000000000002DEAD0000B6
:1000300000000002DEAD000000000002DEAD0000A6
:10004000000000020100000000000002DEAD000020
:10005000000000020100000000000002DEAD000010
:0600600000000002DEAD0D
:10010000020758000207C7000207DD000207F300DC
:1001100002080B00020821000208370002084D0007
:10012000020863000208790002088F000208A50097
:1001300002DEAD0002DEAD0002DEAD0002DEAD008B
:100140000208C20002DEAD0002DEAD0002DEAD003C
:1001500002DEAD0002DEAD0002DEAD0002DEAD006B
:1001600002DEAD0002DEAD0002DEAD0002DEAD005B
:1001700002DEAD0002DEAD0002DEAD0002DEAD004B
:1001800002DEAD0002DEAD0002DEAD0002DEAD003B
:1001900002DEAD0002DEAD0002DEAD0002DEAD002B
:1001A00002DEAD0002DEAD0002DEAD0002DEAD001B
:0801B00002DEAD0002DEAD002D
:100AA8007A647B008A048B051ABAFF011BEC4D702F
:100AB800F322AA8290E740EAF090E68AE4F090E612
:100AC8008B7401F022AA82AB838A047D0090E740F0
:100AD800ECF08B027B0090E741EAF090E68AE4F0C4
:100AE80090E68B7402F022AA82AB83ACF0FD8A06F2
:100AF8007F007800790090E740EEF08B028C038D40
:100B0800047D008A067F007800790090E741EEF0C6
:100B18008B028C038D047D008A067F0078007900A3
:100B280090E742EEF08B028C038D047D007B007C05
:100B3800007D0090E743EAF090E68AE4F090E68BC7
:100B48007404F022120A7F7A037BE08B9A7A037B83
:100B5800E07B008A9B1208FA90E678E0FA4480F07D
:100B680090E67974BAF0120AA890E679742BF0121C
:100B78000AA890E67BE0FA90E679F0120AA890E6D7
:100B88007BE0FA90E679F0120AA890E67BE0FA900A
:100B9800E679F0120AA890E67BE0FA90E679F0127E
:100BA8000AA890E67BE0FA90E679F0120AA890E6A7
:100BB8007BE0FA90E679F0120AA890E67BE0FA90DA
:100BC800E679F0120AA890E67BE0FA90E679F0124E
:100BD8000AA890E678E0FA4440F0120AA890E6786D
:100BE800E0FA4480F090E67974BAF0120AA890E628
:100BF800797401F0120AA890E67BE0FA90E679F0A1
:100C0800120AA890E67BE0FA90E679F0120AA8901A
:100C1800E67BE0FA90E679F0120AA890E67BE0FA23
:100C280090E679F0120AA890E67BE0FA90E679F06F
:100C3800120AA890E67BE0FA90E679F0120AA890EA
:100C4800E67BE0FA90E679F0120AA890E67BE0FAF3
:100C580090E679F0120AA890E67BE0FA90E679F03F
:100C6800120AA890E67BE0FA90E679F0120AA890BA
:100C7800E67BE0FA90E679F0120AA890E67BE0FAC3
:100C880090E679F0120AA890E678E0FA4440F0126B
:100C98000AA890E678E0FA4480F090E67974BAF011
:100CA800120AA890E6797422F0120AA890E67BE06E
:100CB800FA90E679F0120AA890E67BE0FA90E679D5
:100CC800F0120AA890E67BE0FA90E679F0120AA8FA
:100CD80090E67BE0FA90E679F0120AA890E678E0D0
:100CE800FA4440F0120AA890E678E0FA4480F090BE
:100CF800E67974BAF0120AA890E6797408F0120A34
:100D0800A890E67BE0FA90E679F0120AA890E67BD4
:100D1800E0FA90E679F0120AA890E67BE0FA90E60D
:100D280079F0120AA890E67BE0FA90E679F0120AC8
:100D3800A890E678E0FA4440F0120AA890E678E035
:100D4800FA4480F090E67974BAF0120AA890E6792D
:100D58007462F0120AA890E67BE0FA90E679F01245
:100D68000AA890E67BE0FA90E679F0120AA890E6E5
:100D780078E0FA4440F0120AA890E678E0FA448055
:100D8800F090E67974BAF0120AA890E67BE0FA903F
:100D9800E679F0120AA890E67BE0FA90E679F0127C
:100DA8000AA890E67BE0FA90E679F0120AA890E6A5
:100DB80078E0FA4440F0120AA802092AE57860347B
:100DC80012092A90E6047480F000000090E604748A
:100DD80002F000000090E604E4F0000000000000CB
:100DE800120B4C1578E578700B757901D20CD20A84
:100DF800C20BC207200A012290E026E0FA90E6CF53
:100E0800F000000090E025E0FA90E6D0F000000045
:100E180090E024E0FA90E6D1F000000020070C757D
:100E2800BB0600000000000012092A90E029E0FA41
:100E380090E6CFF000000090E028E0FA90E6D0F0CD
:100E480000000090E027E0FA90E6D1F000000030C2
:100E58000B1FE579701BC28120070975BB040000D0
:100E68000012092A90E6487402F0000000C20B80C4
:100E780014E57960021579D28120070975BB06004F
:100E8800000012092A90E02CE0FA90E6CFF000006A
:100E98000090E02BE0FA90E6D0F000000090E02A05
:100EA800E0FA90E6D1F000000020070975BB0600C3
:100EB800000012092AD281300607A20C920AC20940
:100EC80022D205C20AA20C92092290E6B9E0FABA27
:100ED800100302105FBA1103020FDABA18030210E6
:100EE8003BBA2103021047BA2203021053BA250362
:100EF800020F9DBA2602802BBA550280030210EF1A
:100F080090E6BCE0FABA630E908F5275F032740125
:100F1800120AEF0210F490FFFF74FFF5F0120AEFC7
:100F28000210F490E678E0FA4480F090E67974A034
:100F3800F0120AA890E6BCE0FA90E679F0120AA846
:100F480090E678E0FA4440F0120AA890E678E0FAD1
:100F58004480F090E67974A1F0120AA890E678E04F
:100F6800FA4420F090E679E0120AA890E678E0FAD0
:100F78004440F0120AA890E679E0FA90E740F09031
:100F8800E68AE4F090E68B7401F090E678E0FA44A3
:100F980040F00210F490E678E0FA4480F090E679A8
:100FA80074A0F0120AA890E6BCE0FA90E679F01274
:100FB8000AA890E6BAE0FA90E679F0120AA890E654
:100FC80078E0FA4440F090E68AE4F090E68BF0028C
:100FD80010F490E68AE4F090E68BF090E6A0E0FA50
:100FE80020E1F890E740E0700A90E741E07004D211
:100FF800068002C2067A408A031AEB601BEA2401C3
:10100800FBE434E0FCEA2440F582E434E7F583E0CD
:10101800FD8B828C83F080DFD20C0578E57824FD87
:101028005003757802C20990E68AE4F090E68BF0E6
:101038000210F453800F90EEDE120ACD0210F45322
:10104800806F90EEDE120ACD0210F453809F90EE6E
:10105800DE120ACD0210F490E68AE4F090E68BF0F6
:1010680090E6A0E0FA20E1F890E740E0F56EA3E012
:10107800F56FA3E0F570A3E0F57190E744E0F57231
:10108800A3E0F573A3E0F574A3E0F575E56EB4FF8E
:1010980011E56FB4FF0CE570B4FF07E571B4FF020A
:1010A8008012D203746F5580FA90E6BCE0FB74900E
:1010B8005B4AF580E572B4FF11E573B4FF0CE57483
:1010C800B4FF07E575B4FF028012D204749F5580FF
:1010D800FA90E6BCE0FB74605B4AF58090E68AE42F
:1010E800F090E68BF08005740124FF22E424FF22AF
:1010F800758CD1758A4A74F055894401F589438EF7
:1011080008D28CD2A922C0E0C082C083C002C0032A
:10111800C004C005C0D075D000758CD1758A4A301E
:10112800030E856E66856F67857068857169C20371
:1011380030040E85726A85736B85746C85756DC213
:1011480004AA66AB67AC68AD69156674FFB5660C32
:101158001567B567071568B568021569EA4B4C4D00
:10116800700353806FAA6AAB6BAC6CAD6D156A7473
:10117800FFB56A0C156BB56B07156CB56C02156D70
:10118800EA4B4C4D700353809F100502800A90E093
:1011980001E0F576A3E0F577300807E4F576F57712
:1011A800C208300915E57645777006D20AC209806B
:1011B80009157674FFB576021577D0D0D005D0041E
:0B11C800D003D002D083D082D0E032F0
:101E00001201000200000040181610090000010233
:101E100003010A0600020000004001000902200040
:101E200001010080BB0904000002FF00000007055B
:101E300001024000000705820200020004030904B9
:101E400008035100480059000C0351004800590094
:101E5000350054000E0330003900300037003100E7
:021E6000370049
:06031D00E478FFF6D8FDB4
:1002FB007900E94400601B7A00901201784375A0E5
:10030B00E0E493F2A308B8000205A0D9F4DAF27581
:02031B00A0FF41
:100323007800E84400600A790075A000E4F309D876
:10033300FC7843E84400600C790190E000E4F0A30A
:04034300D8FCD9FA0F
:0D02EE0075817B1211D3E582600302034E7F
:0411D30075820022FF
:00000001FF
packihx: read 464 lines, wrote 305: OK.
